:020000040800F2
:100000004006002001010008F3170008BF15000892
:10001000F117000875010008511E000800000000DB
:10002000000000000000000000000000B5180008FB
:10003000770100080000000015180008B718000834
:100040001B0100081B0100081B0100081B01000820
:100050001B0100081B0100081B0100081B01000810
:100060001B0100081B0100081B0100081B01000800
:100070001B0100081B0100081B0100081B010008F0
:100080001B0100081B0100081B0100081B010008E0
:100090001B0100081B0100081B0100081B010008D0
:1000A0001B0100081B0100081B0100081B010008C0
:1000B0001B0100081B0100081B0100081B010008B0
:1000C0001B0100081B0100081B0100081B010008A0
:1000D0001B0100082D1E0008391E0008451E0008DF
:1000E0001B0100081B0100081B010008DFF80CD0F1
:1000F00000F02EF800480047B52000084006002018
:100100000648804706480047FEE7FEE7FEE7FEE7B1
:10011000FEE7FEE7FEE7FEE7FEE7FEE72D19000833
:10012000ED00000830B50B460146002020220124D6
:1001300009E021FA02F59D4205D303FA02F5491BB5
:1001400004FA02F52844151EA2F10102F1DC30BDCB
:10015000064C074D06E0E06840F0010394E8070014
:1001600098471034AC42F6D3FFF7C4FF782200085A
:1001700098220008FEE77047FEE731B500F0ECF882
:10018000044600F0E9F80099001B8842F9D338BD15
:100190002DE9F84FDFF890A100220AF1040B144674
:1001A00001274FF00F090BF1040E00BF0B6807FA8F
:1001B00004F52B40AB4274D1DFF870C14E68A6EB5A
:1001C0000C0866452BD00DDC032E34D005DC36B38D
:1001D000012E19D0022E2FD11BE0112E16D0122E77
:1001E0002AD119E0B8F5881F19D006DCB8F5803F90
:1001F00015D0B8F5801F1FD111E0B8F5001F0ED043
:10020000B8F5041F18D10AE0CA6815E0CA68121DC3
:1002100012E0CA6808320FE0CA680C320CE08A6843
:100220002AB1012A4FF0080203D0456104E00422FC
:1002300002E0056100E00022FF2B01D8064601E044
:1002400000F104064FEA840501D9A5F12005D6F88E
:1002500000C009FA05F82CEA080C02FA05F54CEA88
:10026000050CC6F800C04D68ED0057D5304DAE699D
:1002700046F00106AE61AD6924F0030605F0010504
:1002800000952C4D06EB050CDCF80850A6074FEA4C
:10029000167809FA08F6B543274EB04202D1002677
:1002A00010E03BE0254EB04201D101260AE0244E89
:1002B000B04201D1022605E0224EB04201D1032610
:1002C00000E0042606FA08F62E43CCF808604D68D4
:1002D000DAF80060ED03554601D51E4300E09E4369
:1002E0002E604D68DBF80060AD035D4601D51E430E
:1002F00000E09E432E604D68DEF80060ED0275461A
:1003000001D51E4300E09E432E604D68AD020E4DA8
:100310002E6801D51E4300E09E432E60641C102C05
:10032000FFF444AFBDE8F88F000401400000111055
:10033000001002400000014000080140000C014094
:1003400000100140001401400C0401400AB1016199
:1003500070470904FBE7000001480068704700008F
:100360000000002070B5040004D094F8350000258A
:1003700010B106E0012070BD84F83450204600F032
:1003800061F8242084F835002068016821F001011B
:10039000016000F0EDF9014628482268B1FBF0F059
:1003A0005060274A6368934206D94FF496735843C6
:1003B0004FF47A73B0FBF3F02368401C1862606856
:1003C000904208D84000B1FBF0F0C0F30B010429C3
:1003D00016D2042014E0A26852B100EBC00202EB76
:1003E0000010B1FBF0F040F44040010507D007E0F9
:1003F00000EB4000B1FBF0F040F40040F5E70120D5
:100400002168C861D4E90701084321680860D4E97C
:100410000310084321688860D4E905010843216876
:10042000C8602068016841F001010160A5632020D7
:1004300084F8350084F83650002070BD40420F002B
:10044000A086010000B500680C4985B0884212D131
:10045000C0200090122001900320039069460848B4
:10046000FFF796FE0748C16941F40011C161C069F8
:1004700000F40010049005B000BD000000540040DE
:10048000000C01400010024002480168491C016054
:100490007047000000000020074810B5016841F0D7
:1004A00010010160032000F087F8002000F006F83A
:1004B00000F016F8002010BD0020024010B50446E0
:1004C00000F050F94FF47A71B0FBF1F000F09AFDB2
:1004D00000222146501E00F04FF8002010BD000001
:1004E0001D4808B5816941F001018161806900F012
:1004F00001000090032000F05FF8002211466FF029
:100500000B0000F039F8002211466FF00A0000F0ED
:1005100033F8002211466FF0090000F02DF8002298
:100520001146501F00F028F800221146101F00F05D
:1005300023F800221146901E00F01EF800221146FA
:10054000501E00F019F80548416821F0E06141F0C3
:100550000071416008BD0000001002400000014031
:1005600000F01F02012191404009800000F1E020CD
:10057000C0F8001170470000F0B40E4B1B680C4629
:10058000C3F30223C3F10705042D00D90425191D67
:10059000072901D2002300E0DB1E012606FA05F13F
:1005A000491E214099409E40761E16403143F0BCC2
:1005B00001F020B90CED00E0064900F007020868E0
:1005C0004FF6FF03184040EA0220034A1043086038
:1005D000704700000CED00E00000FA052DE9F0473F
:1005E000DFF8708105460E46D8F8000000F00700DD
:1005F000B0420CD2D8F8001021F007013143C8F8FE
:100600000010D8F8000000F00700B04277D1287839
:10061000514C800705D56068A96820F0F0000843B8
:1006200060602878C00759D06968012001290DD081
:10063000022929D05FF0020393FAA3F2B2FA82F200
:1006400042F02002520904D0226803E04FF4003344
:10065000F2E7626A93FAA3F3B3FA83F303F01F039A
:10066000984002424BD0606820F00300084360606D
:10067000FFF772FE6968074641F2883001290DD004
:100680000229814617D025E04FF00073D4E700BF60
:10069000FFF762FEC11B494501D918E08146606839
:1006A000C0F381000128F3D118E000BFFFF754FE2A
:1006B000C11B49450BD86068C0F381000228F5D101
:1006C0000CE000BFFFF748FEC11B494502D90320DB
:1006D000BDE8F087606810F00C0FF3D1D8F8001077
:1006E000404601F00701B1420BD9016821F0070132
:1006F00031430160006800F00700B04201D00120E2
:10070000E6E72878400705D56068E96820F4E060EE
:10071000084360602878000706D56068296920F4DE
:10072000605040EAC100606000F052F86168F02259
:1007300092FAA2F201F0F001B2FA82F2D140074A35
:10074000515CC840064908600020FFF7B7FE002052
:10075000BEE70000002002400010024060220008B6
:1007600008000020014800687047000008000020D1
:1007700008480949006849684FF4E06292FAA2F219
:1007800001F4E061B2FA82F2D140044A515CC840FF
:10079000704700000800002000100240702200088E
:1007A00008480949006849684FF4605292FAA2F279
:1007B00001F46051B2FA82F2D140044A515CC8405F
:1007C000704700000800002000100240702200085E
:1007D00010B519A385B00FCB8DE80F001AA01B4BE5
:1007E000006804905A681A4802F00C0104291DD0D0
:1007F00008291BD14FF4701494FAA4F402F4701178
:10080000B4FA84F4E140D2031DF8011010D55A68FF
:100810004FF4003393FAA3F302F40032B3FA83F3F4
:10082000DA4004AB9A5CB0FBF2F0484305B010BD6F
:1008300008484843FAE700000203040506070809D0
:100840000A0B0C0D0E0F10100102000000100240E8
:1008500000127A0000093D002DE9F84F04460078A7
:10086000F74DC0074FF0010625D068687704C0F344
:100870008100012807D06868C0F3810002281BD1DD
:100880006868C00318D597FAA7F0B0FA80F040F076
:100890002000400901D0286800E0686A97FAA7F1B3
:1008A000B1FA81F101F01F0106FA01F108425ED0B0
:1008B000606800287CD05AE06068B0F5803F0BD0BB
:1008C00010B1B0F5A02F11D0286820F48030286036
:1008D000286820F4802002E0286840F480302860F6
:1008E000606828B3FFF738FD80460BE0286840F4C5
:1008F00080202860F0E700BFFFF72EFDA0EB080086
:10090000642871D897FAA7F0B0FA80F040F0200080
:10091000400901D0286800E0686A97FAA7F1B1FAA7
:1009200081F101F01F0106FA01F10842E4D01EE056
:10093000FFF712FD804605E0FFF70EFDA0EB080073
:100940006428DED897FAA7F0B0FA80F040F02000D3
:10095000400901D0286800E0686A97FAA7F1B1FA67
:1009600081F101F01F0106FA01F10842E4D120787B
:10097000DFF8D08280074FF000094FF002075BD507
:1009800068684FF0F80B10F00C0F07D06868C0F3E0
:10099000810002281CD16868C00319D497FAA7F017
:1009A000B0FA80F040F02000400902D0286801E051
:1009B0008BE0686A97FAA7F1B1FA81F101F01F01A3
:1009C00006FA01F108422CD0206901287DD128E0E7
:1009D000206990B396FAA6F0B0FA80F048F820604B
:1009E000FFF7BAFC824607E011E100BFFFF7B4FC55
:1009F000A0EB0A00022884D897FAA7F0B0FA80F09A
:100A000040F02000400901D0286800E0686A97FAA9
:100A1000A7F1B1FA81F101F01F0106FA01F10842D4
:100A2000E4D028689BFAABF26169B2FA82F220F056
:100A3000F80091400843286025E0FFE796FAA6F108
:100A4000B1FA81F148F82190FFF786FC824605E073
:100A5000FFF782FCA0EB0A000228CCD897FAA7F097
:100A6000B0FA80F040F02000400901D0286800E092
:100A7000686A97FAA7F1B1FA81F101F01F0106FA4D
:100A800001F10842E4D1207800076ED5A069B8B31F
:100A900096FAA6F0B0FA80F008EB8000C0F8806407
:100AA000FFF75AFC824605E0FFF756FCA0EB0A0070
:100AB0000228A0D897FAA7F0B0FA80F040F06000C2
:100AC000B6EB501F02D128680CE062E197FAA7F05C
:100AD000B0FA80F040F06000B7EB501F01D1286AF7
:100AE00000E0686A97FAA7F1B1FA81F101F01F01FD
:100AF00006FA01F21042D7D00120FFF73EFB34E0A6
:100B0000FFE796FAA6F1B1FA81F108EB8101C1F88D
:100B10008094FFF721FC824606E000BFFFF71CFC33
:100B2000A0EB0A00022872D897FAA7F0B0FA80F07A
:100B300040F06000B6EB501F01D128680BE097FA37
:100B4000A7F0B0FA80F040F06000B7EB501F01D181
:100B5000286A00E0686A97FAA7F1B1FA81F101F01A
:100B60001F0106FA01F21042D8D12078400765D55E
:100B7000E86940F08050E861E869DFF8CCB000F047
:100B800080500090DBF8001041F48071CBF8001029
:100B9000FFF7E2FB824605E0FFF7DEFBA0EB0A0071
:100BA000642834D8DBF80000C005F5D5E0680128DA
:100BB0000AD008B1052813D0286A20F00100286265
:100BC000286A20F0040002E0286A40F00100286250
:100BD000E06841F2883B90B3FFF7BEFB82460BE032
:100BE000286A40F004002862EEE700BFFFF7B4FB7C
:100BF000A0EB0A0159450AD897FAA7F0B0FA80F09D
:100C000040F04000B6EB501F02D128680CE0A3E092
:100C100097FAA7F0B0FA80F040F04000B7EB501F11
:100C200001D1286A00E0686A97FAA7F1B1FA81F168
:100C300001F01F0206FA02F10842D7D031E005E0C8
:100C4000001002400000424200700040FFF784FBA9
:100C5000824605E0FFF780FBA0EB0A0159457BD8EF
:100C600097FAA7F0B0FA80F040F04000B6EB501FC2
:100C700001D128680BE097FAA7F0B0FA80F040F0B5
:100C80004000B7EB501F01D1286A00E0686A97FA6C
:100C9000A7F1B1FA81F101F01F0206FA02F1084250
:100CA000D8D1E06980B36968C1F38101022970D0AD
:100CB0004FF080714F000228484609D091FAA1F107
:100CC000B1FA81F148F82100FFF746FB044669E0DC
:100CD0008A4691FAA1F1B1FA81F1C14648F82100A2
:100CE000FFF73AFB804605E0FFF736FBA0EB080074
:100CF000022854D897FAA7F0B0FA80F040F020000C
:100D0000400902D0286801E061E0686A97FAA7F11B
:100D1000B1FA81F101F01F0106FA01F10842E3D1B5
:100D2000206AB0F5803F05D16868A16820F40030E2
:100D300008436860D4E908010843696821F4741124
:100D4000084368609AFAAAF0B0FA80F049F8206087
:100D5000FFF702FB044606E021E000BFFFF7FCFAC4
:100D6000001B02281BD897FAA7F0B0FA80F040F0D9
:100D70002000400901D0286800E0686A97FAA7F1CE
:100D8000B1FA81F101F01F0106FA01F10842E5D044
:100D90001DE01EE0FFF7E0FA001B022802D9032045
:100DA000BDE8F88F97FAA7F0B0FA80F040F0200085
:100DB000400901D0286800E0686A97FAA7F1B1FA03
:100DC00081F101F01F0106FA01F10842E2D1002091
:100DD000E6E70120E4E7000010B5040003D094F832
:100DE000510010B104E0012010BD204600F038F899
:100DF000022084F851002068016821F04001016060
:100E0000D4E901010843D4E903121143084361699D
:100E10000843218B01F400710843E1690843216A0A
:100E20000843A16A084321680860A069042101EA17
:100E30001040616A0843216848602168E06A0861DF
:100E40002068C16921F40061C16104490020087073
:100E50006065012084F85100002010BD04000020CE
:100E600000B500680C4985B0884213D10B48C169B0
:100E700041F48041C161C069694600F4804004903A
:100E80004FF420400090022001900320039004487A
:100E9000FFF77EF905B000BD0038004000100240A9
:100EA000000C01402DE9F843044690F851009846A3
:100EB000012870D139B332B394F8500001286AD0B8
:100EC000012684F85060122084F8510000256565E1
:100ED0002163A286E286E564A564A563A587E5870C
:100EE000A06A7703B84209D12068016821F4005153
:100EF00001602068016841F400510160A068B0F50C
:100F0000004F03D007E00120BDE8F88320680168A6
:100F100041F48041016020680168490603D40168FA
:100F200041F040010160E0680028606804D0D8B159
:100F3000E08E012818D021E010B1E08E012808D100
:100F4000206B411C216321680078C860E08E401E40
:100F5000E0860004000C1FD04346002202212046F8
:100F600000F059FCA8B9EBE7206B21680088C86045
:100F7000206B801C2063E08E401EE0860004000C85
:100F80000AD0434600220221204600F044FC0028FB
:100F9000EAD00320B8E726E0A06AB84204D120686E
:100FA000016841F48051016043460022022120463D
:100FB00000F031FC30B9434601228021204600F088
:100FC0002AFC20B1606D40F010006065E1E7A06888
:100FD00018B92068C1688068009084F8516084F86E
:100FE0005050002090E702208EE74FF0E0210428C7
:100FF000086903D020F004000861704740F0040045
:10100000FAE7704710B5401EB0F1807F01D3012090
:1010100010BD4FF0E02460610F21601700F0EAFB83
:101020000020A06107202061002010BD10B5FFF74F
:10103000E8FF10BD30B590F83820012A20D00122F9
:1010400080F83820022380F8393003685C6824F087
:1010500070045C6003685C680D682C435C60036826
:101060009C6824F080049C6003689C6849680C4379
:101070009C6080F83920002180F83810084630BD87
:10108000022030BD1FB500680A49884210D10224F1
:10109000C020CDE90004694607480394FFF778F8BB
:1010A0000320CDE90004694604480394FFF770F873
:1010B0001FBD00000004004000080140000C01407A
:1010C00070B5044690F838000D4601280DD0012671
:1010D00084F83860022084F8390042B1042A18D01C
:1010E000082A2AD00C2A4DD139E0022070BD206890
:1010F00000F072FC2068816941F00801816120687C
:10110000816921F004018161206881692A691143A4
:1011100011E0206800F088FC2068816941F40061DA
:1011200081612068816921F4806181612068816921
:101130002A6941EA0221816124E0206800F0A0FCD4
:101140002068C16941F00801C1612068C16921F0CE
:101150000401C1612068C1692A69114311E0206856
:1011600000F0BAFC2068C16941F40061C1612068E7
:10117000C16921F48061C1612068C1692A6941EABD
:101180000221C16184F83960002084F8380070BD04
:1011900010B5040003D094F8390010B107E0012025
:1011A00010BD002084F83800204600F00DF8022021
:1011B00084F83900211D206800F0DCFB012084F850
:1011C0003900002010BD000008B5006806498842BB
:1011D00008D10648C16941F00201C161C06900F04F
:1011E0000200009008BD0000000400400010024012
:1011F0007047000038B5044600680168C26811F005
:10120000010F02F4807204D01AB1E16B41F00101C8
:10121000E1630168C1F34002416901F0010122B1BB
:1012200019B1E26B42F00402E2630268C2F3800289
:1012300022B119B1E26B42F00202E2630268C2F32A
:10124000C00222B119B1E16B41F00801E16301680C
:10125000C068C1F3401100F0200019B110B1204660
:1012600000F05CFC20680168C068C1F3C01100F0A8
:10127000800019B110B1204600F05CFD21680868BB
:10128000CA68C0F3801002F04002012570B16AB153
:10129000CA68204622F04002CA6094F83910322908
:1012A00011D080F8395000BF00F088F9E06B0028B9
:1012B00008D0206801684068009084F839502046C2
:1012C000FFF796FF38BD222180F83910ECE770B5A2
:1012D000040004D094F83900002510B106E0012084
:1012E00070BD84F83850204600F020F8022084F8C1
:1012F00039002068C16821F40051C160204600F027
:1013000061FC2068016921F4904101612068416914
:1013100021F02A0141612068C16841F40051C16097
:10132000E563012084F83900002070BDF0B5036842
:10133000374F0220002437490322374D460285B03B
:10134000BB421DD18B6943F480438B618969039251
:1013500001F4804104910102CDE90010694628465C
:10136000FEF716FFCDE90064694628460294FEF7B1
:101370000FFF002211462520FFF7FEF8252020E070
:10138000264FBB4221D1CB6943F40033CB61C969FD
:10139000039201F4003104910421CDE90010694663
:1013A0002846FEF7F5FE0820CDE9000469462846E8
:1013B0000294FEF7EDFE002211462620FFF7DCF82E
:1013C0002620FFF7CDF805B0F0BD154DAB42FAD1A0
:1013D000CB6943F48023CB61C969124D01F48021AC
:1013E000CDE90321CDE9006069462846FEF7D0FE2D
:1013F000E814CDE90004694628460294FEF7C8FEC9
:10140000002211462720FFF7B7F82720D9E7000070
:101410000038014000100240000801400044004034
:1014200000480040000C014090F83930012B01D0F9
:10143000122B2CD139B332B390F83830012B26D08F
:10144000012380F8383081628285C2850021C16322
:1014500090F83920122A18D05FF0220280F8392043
:1014600080F838100168CA6842F48072CA60016866
:101470004A6942F001024A610068C16841F02001F6
:10148000C16000207047012070473222E6E7022049
:101490007047000010B5044601681148814208D128
:1014A000002301220F49204600F022F801220D49B5
:1014B00010E00D48814205D100F0C0FD094901222C
:1014C000491C07E00948814209D100F08DFD05491A
:1014D0000122891C2046BDE81040FFF7A5BF10BDC2
:1014E000003801400C00002000440040004800404B
:1014F0002DE9F047044690F8390099460D46012839
:1015000001D0222858D12DB322B394F838000128F5
:1015100052D0012684F838600027E76394F8390038
:1015200022281AD05FF0120084F83900A284E284E5
:101530004FF48058E08C4B46401EE084A0684FF08A
:10154000000240454FF08001204613D100F025FCF9
:1015500008BB04E00120BDE8F0873220E4E72888DA
:101560002168C0F308004860206908B16D1C08E0DC
:10157000AD1C06E000F011FC68B9216815F8010BFC
:101580004860E08C0028D5D14B46002240212046FF
:1015900000F003FC08B10320DDE794F8390032289D
:1015A00006D084F8396000BF84F838700020D2E794
:1015B000222084F83900F7E70220CCE77047FEE7E5
:1015C00030B51A4885B0816941F0100181618169A7
:1015D00001F010010491816941F02001816181696C
:1015E00001F020010491816941F004018161816968
:1015F00001F004010491816941F008018161806971
:101600000B4D00F008004FF40054049000222146D6
:101610002846FEF79BFE0120CDE900400220039002
:1016200069462846FEF7B4FD05B030BD0010024003
:10163000001001400D4810B50B4901600C49416094
:1016400000214FF480428160C0E903124161816151
:10165000C1610162FEF786FE002803D0BDE810409C
:10166000FEF78ABD10BD0000005400406C01002050
:10167000A0860100104810B50E4901604FF4827138
:10168000416000218160C1604FF400720161C0E9D6
:1016900005121822C0E90721416281620A21C16254
:1016A000FFF79AFB002803D0BDE81040FEF764BDA9
:1016B00010BD000000380040E401002010B52148B2
:1016C0008AB01F490024C0E900148460C46004612A
:1016D000FFF75EFD08B1FEF74FFD079407A9194813
:1016E0000894FFF7A7FC08B1FEF746FD6020CDE99E
:1016F000000402940022694612480494FFF7E0FCBB
:1017000008B1FEF739FD042269460E48FFF7D8FC00
:1017100008B1FEF731FD082269460A48FFF7D0FC00
:1017200008B1FEF729FD0C2269460648FFF7C8FC00
:1017300008B1FEF721FD0348FFF7A4FC0AB010BD75
:1017400000040040A80100200C4810B50A490160BF
:101750004FF4E1314160002181600C22C160C0E999
:1017600004128161C161FFF7B2FD002803D0BDE81A
:101770001040FEF701BD10BD00380140AC00002054
:101780000C4810B50A4901604FF416514160002120
:1017900081600C22C160C0E904128161C161FFF760
:1017A00096FD002803D0BDE81040FEF7E5BC10BD53
:1017B00000440040EC0000200C4810B50A490160CC
:1017C0004FF416514160002181600C22C160C0E9D4
:1017D00004128161C161FFF77AFD002803D0BDE8E2
:1017E0001040FEF7C9BC10BD004800402C0100208D
:1017F000FEE770470907090E002806DA00F00F001F
:1018000000F1E02080F8141D704700F1E02080F81E
:101810000014704770472DE9F0471D4690460E466C
:101820000446FEF799FD07465FEA08004FF00008FE
:101830004FF4005A4FF0010926D034E0681C23D041
:1018400025B1FEF789FDC01BA8421DD9206841685B
:1018500021F0E00141602068016821F04001016051
:10186000A06A504509D12068016821F40051016047
:101870002068016841F40051016084F8519084F8B7
:1018800050800320BDE8F0872068806836EA0000B9
:10189000D4D10DE0681C06D0002DD7D0FEF75CFD3A
:1018A000C01BA842D2D82068806836EA0000F1D078
:1018B0000020E7E7704710B5FEF7E6FDBDE81040F1
:1018C000FFF7B4BB30B58FB001210804CDE900109B
:1018D0000024029402250491CDE907504FF4C01072
:1018E00009906846FEF7B8FF00B1FEE70F20CDE98A
:1018F0000A054FF48060CDE90C4002210AA80E943D
:10190000FEF76CFE00B1FEE7FEF72CFF4FF47A7194
:10191000B0FBF1F0FFF776FB0420FFF766FB002237
:101920001146501EFEF728FE0FB030BD0D4801686D
:1019300041F00101016041680B4A114041600168BA
:101940000A4A11400160016821F480210160416868
:1019500021F4FE0141604FF41F0181600449C0037E
:1019600008607047001002400000FFF8FFFFF6FE1D
:1019700008ED00E0F0B50268144B154C154D4FF022
:101980008047984205D0B84203D0A04201D0A84277
:1019900003D122F070064A683243984205D0B8421B
:1019A00003D0A04201D0A84203D122F44074CA68F7
:1019B000224302608A68C2620A688262984201D148
:1019C0000969016301214161F0BD0000002C014063
:1019D000000400400008004030B5026A22F0010215
:1019E0000262026A4368846924F073050C682C4320
:1019F00022F002058A682A430A4DA8420BD122F040
:101A00000805CA6823F440732A434D6922F0040292
:101A10001D438B692B4343608461496841630262C3
:101A200030BD0000002C014030B5026A22F01002E7
:101A30000262026A436884690D6824F4E64444EA59
:101A400005248D6822F0200242EA05120B4DA842BF
:101A50000ED1CD6822F0800242EA05124D6923F4CE
:101A6000406343EA85038D6922F0400243EA85031F
:101A70004360846149688163026230BD002C01408B
:101A800030B5026A22F480720262036A4268C46955
:101A900023F4007324F073050C682C438D6843EA2B
:101AA00005230C4DA8420ED1CD6823F4006343EA10
:101AB00005234D6922F4405242EA05128D6923F450
:101AC000806342EA05124260C4614968C1630362EF
:101AD00030BD0000002C014030B5026A22F4805273
:101AE0000262046A4268C3690D6823F4E64343EA6C
:101AF00005238D6824F4005444EA0534064DA842B9
:101B000004D14D6922F4804242EA85124260C361E9
:101B100049680164046230BD002C014010B590F8A2
:101B20003910222903D0322901D0022010BD81684A
:101B3000B1F5805F11D00169002901681FD04968A3
:101B400001F07F03816A4A1C82620B70C18D491EBD
:101B50000904090CC18518D030E00269816A002AA5
:101B60000268526805D0D2B20A80816A491C81623B
:101B7000ECE7C2F308020A80816A891CF7E74A6829
:101B8000816A4B1C83620A70E0E70168CA6822F030
:101B90002002CA6090F83910322911D00168CA6851
:101BA00022F48072CA6001684A6922F001024A6127
:101BB0005FF0010180F83910FFF76CFC002010BDC8
:101BC0001221F7E72DE9F041044600680169E26857
:101BD00021F44051114301612169A0680843616902
:101BE00008432168CA6841F20C639A430243CA6001
:101BF00020684169A26921F44071114341614C4957
:101C000020686425322688423CD1FEF7C9FD00EBEE
:101C1000C00101EB001061688900B0FBF1F7FEF72D
:101C2000BFFD00EBC00101EB00106168B046890008
:101C3000B0FBF1F0B0FBF5F06FF01801484307EB93
:101C4000800106EB0110B0FBF5F000F0F006FEF7A6
:101C5000A7FD00EBC00101EB001061688900B0FB3B
:101C6000F1F0B0FBF5F006EB0016FEF799FD00EB86
:101C7000C00101EB001061688900B0FBF1F7FEF7CD
:101C80008FFD3BE0FEF774FD00EBC00101EB00109F
:101C900061688900B0FBF1F7FEF76AFD00EBC00157
:101CA00001EB00106168B0468900B0FBF1F0B0FBB9
:101CB000F5F06FF01801484307EB800106EB0110C7
:101CC000B0FBF5F000F0F006FEF752FD00EBC001AE
:101CD00001EB001061688900B0FBF1F0B0FBF5F09A
:101CE00006EB0016FEF744FD00EBC00101EB00100F
:101CF00061688900B0FBF1F7FEF73AFD00EBC00127
:101D000001EB001061688900B0FBF1F0B0FBF5F069
:101D10006FF01801484307EB800108EB0110B0FB9E
:101D2000F5F0216800F00F0030448860BDE8F081D4
:101D30000038014090F83910122903D0322901D01F
:101D4000022070478168B1F5805F016A0BD04A1CA0
:101D50000262026809785160C18C491E0904090CAD
:101D6000C1840ED017E009880268C1F308015160F0
:101D700001690029016A02D0491C0162ECE7891C53
:101D8000FBE70168CA6822F08002CA600068C16887
:101D900041F04001C160002070472DE9F0471D4629
:101DA00090460E460446FEF7D7FA07465FEA08005B
:101DB0004FF000094FF0010808D030E0681C05D052
:101DC00095B1FEF7C9FAC01BA8420DD8206800687B
:101DD00036EA0000F2D127E0681C20D025B1FEF7DA
:101DE000BBFAC01BA8421AD92068C16821F0800143
:101DF000C1602068C16821F02001C1602068C1680D
:101E000021F48071C1602068416921F001014161C4
:101E100084F8398084F838900320BDE8F087206882
:101E2000006836EA0000D7D00020F6E70148FFF747
:101E3000E1B90000AC0000200148FFF7DBB9000069
:101E4000EC0000200148FFF7D5B900002C0100206C
:101E5000FEE700000FB4054B10B503A9044A029831
:101E600000F018F810BC5DF814FB00009D2000087D
:101E70006000002002E008C8121F08C1002AFAD141
:101E800070477047002001E001C1121F002AFBD1FA
:101E9000704700002DE9FF4F89B09B46044600259E
:101EA00006E025280BD05A460B999047641C6D1C00
:101EB00020780028F5D10DB02846BDE8F08F002726
:101EC000B8460122474900E0074314F8013F203B90
:101ED00002FA03F00842F7D120782E2819D114F81D
:101EE000010F47F004072A280ED06FF02F02207848
:101EF000A0F1300109290CD808EB880102EB41015F
:101F000000EB0108641CF2E70A98641C50F8048B8B
:101F10000A9020780028CED0642808D0692806D0FE
:101F200075281ED05A460B9990476D1C58E00A99A7
:101F30004FF00A0901C90A91002802DA40422D2116
:101F400002E0390504D52B218DF82010012103E092
:101F5000F90704D02021F7E78A4608AE0DE00021FA
:101F6000FAE70A994FF00A0901C90A91F7E74946C9
:101F7000FEF7D8F8303106F8011D0028F7D1ADEB97
:101F8000060000F12009780701D44FF00108C84588
:101F900002DDA8EB090000E000208046002706E0F3
:101FA00008A85A46C05D0B9990476D1C7F1C574589
:101FB000F6DB04E030205A460B9990476D1CB8F1CF
:101FC0000001A8F10108F5DC05E016F8010B5A46FE
:101FD0000B9990476D1CB9F10001A9F10109F4DCDE
:101FE000641C65E7092801001248134902798378C7
:101FF0008B54521CD2B200230271012A11D0022A42
:1020000013D00C2A0CD14A79097902EB012189B24B
:10201000C18003710289914202D001810121C17006
:1020200070470978422903D1704749784D29FBD080
:10203000037170470C00002064000020154810B5A3
:102040001549427943788B54521CD2B20023427115
:10205000012A16D0022A18D0202A11D1CA7A8C7AE5
:1020600002EB042242814A7B0C7B02EB0422828138
:10207000CA7B897B02EB0121C18143710121C170BF
:1020800010BD0978422903D110BD49784D29FBD0F4
:10209000437110BD0C0000207000002013B54FF6F6
:1020A000FF73012269460248FFF722FA00981CBD1F
:1020B000AC00002008B5FEF7EFF9FFF703FCFFF7CF
:1020C0007FFAFFF7B7FAFFF73FFBFFF759FBFFF780
:1020D00073FBFFF7F3FAFFF7CDFA012225492648F3
:1020E000FFF7A2F923490122491C2448FFF79CF974
:1020F00020490122891C2248FFF796F91D4C4FF414
:102100007A77E078012815D145031E4E0022294632
:102110003046FEF71BF9E0880090E389A2896189C7
:1021200019A0FFF797FE012229463046FEF70EF967
:102130000020E070FEF710F920616169401AB84292
:10214000DFD90C49FF2307221C310D48FFF7D0F9D6
:1021500020696061A1690620B1FBF0F200FB12105A
:10216000044A491C243252F820000068A16100F0A2
:1021700021F8C6E70C000020AC000020EC00002095
:102180002C01002000100140504D312E303A202506
:10219000642C20504D322E353A2025642C20504D91
:1021A00031303A2025642C20434F323A2025640AEE
:1021B000000000002DE9F041FF230A2226492748AC
:1021C000FEF770FE244A00230F3A19465FF0010023
:1021D00002EBD10401F0070500FA05F52678491C49
:1021E0002E43C9B2267002EBD10401F0070500FAB4
:1021F00005F52678491CAE43C9B2267002EBD1041E
:1022000001F0070500FA05F52678491CAE43C9B26E
:10221000267002EBD10401F0070500FA05F52678D7
:10222000491CAE43C9B201F00705267000FA05F754
:1022300002EBD104491C26785B1CBE43DBB226703E
:10224000C9B2182BC4D3BDE8F0410349FF230F22C4
:102250000F390248FEF726BE9F000020E40100204F
:102260000000000000000000010203040607080946
:102270000000000001020304982200080000002072
:1022800064000000741E0008FC22000864000020A6
:10229000DC050000841E00080000000000000000B3
:1022A00000A24A040000000000000000000000003E
:1022B000000000000000000000000000000000001E
:1022C000424DE30000017200480000204C00002055
:1022D0005000002054000020580000205C00002026
:1022E0006699000033DEFF003399FF003300CC0015
:0C22F0009900660023007E000000000042
:04000005080000ED02
:00000001FF
