:020000040800F2
:10000000B805002001010008312000086D1D00081E
:100010002D20000849010008992700080000000071
:100020000000000000000000000000006F20000839
:100030006D010008000000006D200008712000081C
:100040001B0100081B0100081B0100081B01000820
:100050001B0100081B0100081B0100081B01000810
:100060001B0100081B0100081B0100081B01000800
:100070001B0100084D0100081B0100081B010008BE
:100080005D0100081B0100081B0100081B0100089E
:100090001B0100081B0100081B0100081B010008D0
:1000A0001B0100081B0100081B0100081B010008C0
:1000B0001B0100081B0100081B0100081B010008B0
:1000C0001B0100081B0100081B0100081B010008A0
:1000D0001B01000869270008792700088927000804
:1000E0001B0100081B0100081B010008DFF80CD0F1
:1000F00000F018F80048004709280008B80500205B
:100100000648804706480047FEE7FEE7FEE7FEE7B1
:10011000FEE7FEE7FEE7FEE7FEE7FEE7F520000864
:10012000ED000008064C074D06E0E06840F00103D2
:1001300094E8070098471034AC42F6D3FFF7DAFF93
:100140006C2800088C28000800BFFEE710B50248A4
:1001500000F010F810BD00000401002010B50248A6
:1001600000F008F810BD0000CC000020704700BF70
:10017000FEE7000010B50446C1480068C04A0832D6
:100180002168914201D1082127E0BD4A1C32216833
:10019000914201D1802120E0B94A30322168914258
:1001A00001D1C91419E0B64A44322168914202D102
:1001B0004FF4004111E0B24A58322168914202D115
:1001C0004FF4002109E0AE4A6C322168914202D11D
:1001D0004FF4000101E04FF00061084000284DD0CD
:1001E00020680068C0F3C00090B32068006820F069
:1001F000080021680860A24908312068884201D1BE
:10020000082028E09E491C312068884201D18020C6
:1002100021E09B4930312068884201D1C0141AE0A6
:10022000974944312068884202D14FF4004012E0DF
:10023000934958312068884202D14FF400200AE0E7
:100240008F496C312068884203D14FF4000002E0EE
:1002500014E04FF000608A494860606B40F0010094
:100260006063042084F8210000BF002084F820008F
:1002700000BF206B10B12046216B88478048006882
:100280007F4A08322168914201D1042127E07C4A4B
:100290001C322168914201D1402120E0784A30325D
:1002A0002168914201D1091519E0754A443221684B
:1002B000914202D14FF4804111E0714A58322168D5
:1002C000914202D14FF4802109E06D4A6C322168DD
:1002D000914202D14FF4800101E04FF0806108406B
:1002E000A0B320680068C0F3800078B3206800687D
:1002F00000F0200028B92068006820F00400216880
:1003000008605F4908312068884201D1042028E054
:100310005B491C312068884201D1402021E05849C6
:1003200030312068884201D100151AE05449443127
:100330002068884202D14FF4804012E05049583181
:100340002068884203D14FF480200AE013E04C4932
:100350006C312068884202D14FF4800001E04FF0F8
:10036000806047494860112084F82100E06A10B19C
:100370002046E16A884742480068414A08322168BD
:10038000914201D1022127E03D4A1C32216891426D
:1003900001D1202120E03A4A30322168914201D136
:1003A000491519E0364A44322168914202D14FF48E
:1003B000005111E0324A58322168914202D14FF483
:1003C000003109E02E4A6C322168914202D14FF48B
:1003D000001101E04FF000710840A0B320680068F0
:1003E000C0F3400078B32068006800F0200028B90E
:1003F0002068006820F00200216808602049083168
:100400002068884201D1022028E01D491C31206863
:10041000884201D1202021E01949303120688842EA
:1004200001D140151AE0164944312068884202D1B2
:100430004FF4005012E0124958312068884203D12D
:100440004FF400300AE01AE00D496C312068884210
:1004500002D14FF4001001E04FF0007008494860ED
:10046000606B6063012084F8210000BF002084F8E5
:10047000200000BFA06A10B12046A16A884710BDC5
:10048000000002400146002209B90120704791F89E
:10049000210010B9002081F82000022081F82100FD
:1004A0000868026843F6F0708243D1E901031843FB
:1004B000CB6818430B6918434B6918438B69184381
:1004C000CB6918430243086802600020486301209A
:1004D00081F821000020D9E731B5002400F0A2F90D
:1004E000044600BF00F09EF9001B00998842F9D332
:1004F00038BD00002DE9F847034600240020002500
:100500008446002700226EE14FF0010808FA02F449
:10051000D1F8008008EA0400A0427DD1DFF8D0A223
:10052000D1F80480A8EB0A09D0453AD014DCB8F120
:10053000030F50D009DCB8F1000F31D0B8F1010F32
:100540001CD0B8F1020F49D120E0B8F1110F18D03A
:10055000B8F1120F42D11EE0B9F5881F25D006DC94
:10056000B9F5803F20D0B9F5801F37D11AE0B9F531
:10057000001F18D0B9F5041F30D117E0D1F80CC016
:100580002DE0D1F80C8008F1040C28E0D1F80C80A3
:1005900008F1080C23E0D1F80C8008F10C0C1EE0E7
:1005A00000BF00BF00BF00BF00BF00BFD1F8088080
:1005B000B8F1000F02D14FF0040C0BE0D1F8088025
:1005C000B8F1010F03D14FF0080C1C6102E04FF0AD
:1005D000080C5C6103E04FF0000C00E000BF00BFBE
:1005E000FF2801D8984601E003F104084646FF2899
:1005F00002D84FEA820803E0A2F108084FEA88080F
:100600004746D6F800804FF00F0909FA07F928EAA3
:1006100009080CFA07F900E088E048EA0908C6F87A
:100620000080D1F8048008F08058B8F1805F7DD157
:1006300000BFDFF8C081D8F8188048F00108DFF863
:10064000B491C9F81880C846D8F8188008F0010895
:10065000CDF8008000BF00BF4FEAB9384FEA9209D9
:1006600058F829504FEA82784FEA18794FF00F086E
:1006700008FA09F825EA0805DFF87C81434502D12C
:100680004FF0000816E0DFF87481434502D14FF0C7
:1006900001080FE0DFF86881434502D14FF00208FE
:1006A00008E0DFF86081434502D14FF0030801E024
:1006B0004FF004084FEA82794FEA197908FA09F8ED
:1006C00048EA0505DFF840814FEA920948F82950C9
:1006D000D1F8048008F48038B8F5803F0AD1DFF8FB
:1006E0002C81D8F8008048EA0008DFF82091C9F88A
:1006F000008009E0DFF81481D8F8008028EA0008BB
:10070000DFF80891C9F80080D1F8048008F40038B7
:10071000B8F5003F10D1DFF8F48008F10408D8F8EC
:10072000008048EA0008DFF8E49000E05AE009F1B0
:100730000409C9F800800DE0DFF8D08008F1040852
:10074000D8F8008028EA0008DFF8C09009F1040911
:10075000C9F80080D1F8048008F48018B8F5801F2B
:100760000ED1DFF8A88008F10808D8F8008048EA20
:100770000008DFF8989009F10809C9F800800DE039
:10078000DFF8888008F10808D8F8008028EA000817
:10079000DFF8789009F10809C9F80080D1F80480E1
:1007A00008F40018B8F5001F0ED1DFF8608008F1DA
:1007B0000C08D8F8008048EA0008DFF8509009F1EA
:1007C0000C09C9F800800DE0DFF8408008F10C0842
:1007D000D8F8008028EA0008DFF8309009F10C0909
:1007E000C9F80080521C102AFFF48EAEBDE8F887CD
:1007F000000011100010024000080140000C0140F0
:1008000000100140001401400800014000040140B4
:10081000C2684A40C26070470AB1016101E00B043E
:100820000361704701480068704700000000002025
:1008300070B50446002500260CB9012070BD94F85F
:10084000350028B9002084F83400204600F04AF82A
:10085000242084F835002068006820F00100216819
:10086000086000F08DFA06461C48B6FBF0F52068DB
:1008700045601B496068884201D8681C07E04FF456
:10088000967068434FF47A71B0FBF1F0401C216818
:1008900008623146204601F06BFA2168C861D4E94C
:1008A0000701084321680860D4E903100843216860
:1008B0008860D4E9050108432168C86020680068A1
:1008C00040F00100216808600020A063202084F827
:1008D0003500002084F8360000BFAFE740420F002B
:1008E000A086010010B586B004460F4920688842F2
:1008F00017D1C0200290122003900320059002A976
:100900000A48FFF7F7FD00BF0948C06940F400102E
:100910000749C8610846C06900F40010019000BF93
:1009200000BF06B010BD000000540040000C0140A4
:100930000010024002480068401C014908607047EE
:100940000000002010B50848006840F0100006497B
:100950000860032000F0AEF8002000F007F800F077
:1009600017F8002010BD00000020024070B50446BA
:1009700000F000FA4FF47A71B0FBF1F5284600F070
:10098000D6FE00222146501E00F055F8002070BD12
:1009900008B500BF1F48806940F001001D4988610B
:1009A0000846806900F00100009000BF00BF0320EE
:1009B00000F080F8002211466FF00B0000F03BF8C9
:1009C000002211466FF00A0000F035F800221146AF
:1009D0006FF0090000F02FF800221146501F00F0C0
:1009E0002AF800221146101F00F025F800221146B7
:1009F000901E00F020F800221146501E00F01BF857
:100A00000548406820F0E06040F00070024948600E
:100A100008BD0000001002400000014000BF00F0CF
:100A20001F02012191404209920002F1E022C2F826
:100A3000001100BF70472DE9F05F80460D46164655
:100A4000002701F0F7FA074639462A46334601F0F7
:100A50000700C0F1070ABAF1040F02D94FF0040AE7
:100A600001E0C0F1070AD14600F1040ABAF1070F0C
:100A700002D24FF0000A01E0A0F1030AD4464FF081
:100A8000010A0AFA09FAAAF1010A0AEA020A0AFAAA
:100A90000CFA4FF0010B0BFA0CFBABF1010B0BEA5C
:100AA000030B4AEA0B042146404601F0CBFABDE8AD
:100AB000F09F000000BF00F00702064B19684FF6D8
:100AC000FF031940044B0B4343EA0221014B196019
:100AD00000BF70470CED00E00000FA0570B5044659
:100AE0000D4600269F48006800F00700A8420ED27D
:100AF0009C48006820F0070028439A49086008468F
:100B0000006800F00700A84201D0012070BD2078E5
:100B100000F00200022807D19348406820F0F0005E
:100B2000A168084390494860207800F0010000283F
:100B30007CD0606801282DD12020010391FAA1F119
:100B4000B1FA81F108430121B1EB601F02D186485F
:100B500000680FE02020010391FAA1F1B1FA81F1C0
:100B600008430221B1EB601F02D17F48006A01E017
:100B70007D48406A20210A0392FAA2F2B2FA82F278
:100B8000114301F01F02012191400840002860D16B
:100B90000120BBE7606802282CD12020010591FAD2
:100BA000A1F1B1FA81F108430121B1EB601F02D13B
:100BB0006D4800680FE02020010591FAA1F1B1FA1B
:100BC00081F108430221B1EB601F02D16648006A3F
:100BD00001E06548406A20210A0592FAA2F2B2FAC1
:100BE00082F2114301F01F0201219140084078BBBD
:100BF00001208BE72020022191FAA1F1B1FA81F1C5
:100C000008430121B1EB601F02D15748006810E092
:100C10002020022191FAA1F1B1FA81F108430221C9
:100C2000B1EB601F03D15048006A02E054E04E4827
:100C3000406A2021022292FAA2F2B2FA82F2114311
:100C400001F01F0201219140084008B901205DE731
:100C5000FFE74548406820F00300616808434249C7
:100C60004860FFF7DFFD06466068012810D108E004
:100C7000FFF7D8FD801B41F28831884201D903205B
:100C800044E73948406800F00C000428F0D123E024
:100C90006068022810D108E0FFF7C4FD801B41F214
:100CA0008831884201D9032030E72F48406800F09E
:100CB0000C000828F0D10FE008E0FFF7B3FD801B1F
:100CC00041F28831884201D903201FE72648406855
:100CD00000F00C000028F0D12248006800F0070066
:100CE000A8420ED91F48006820F0070028431D497C
:100CF00008600846006800F00700A84201D0012003
:100D000004E7207800F00400042807D11648406862
:100D100020F4E060E168084313494860207800F05F
:100D20000800082808D11048406820F46050216964
:100D300040EAC1000C49486000F04EF80A49496891
:100D400001F0F001F02292FAA2F2B2FA82F2D1405E
:100D5000064A515CC840064908600020FFF706FEBD
:100D60000020D3E600200240001002405428000872
:100D700004000020014800687047000004000020C3
:100D800000B5FFF7F7FF0749496801F4E0614FF448
:100D9000E06292FAA2F2B2FA82F2D140024A515CC7
:100DA000C84000BD001002406428000800B5FFF7ED
:100DB000E1FF0749496801F460514FF4605292FA2B
:100DC000A2F2B2FA82F2D140024A515CC84000BDA0
:100DD0000010024064280008F0B585B00FF28C0CBA
:100DE0009CE8E01001A8A0E8E01024A52D6800957B
:100DF00000210024002200230020214D696801F019
:100E00000C056DB3042D02D0082D28D101E01D483A
:100E100028E001F470154FF4701696FAA6F6B6FAAB
:100E200086F6F54001AE735D01F4803595B1144D41
:100E30006D6805F400354FF4003696FAA6F6B6FA5A
:100E400086F6F5401DF805400E4DB5FBF4F505FBA3
:100E500003F202E00C4D03FB05F2104602E000BF76
:100E6000084800BF00BF05B0F0BD00000203040544
:100E7000060708090A0B0C0D0E0F101001020000E6
:100E80000010024000127A0000093D0038B5044607
:100E90000025207800F0010000287CD0F848406848
:100EA00000F00C0004280CD0F548406800F00C005D
:100EB000082837D1F248406800F48030B0F5803F10
:100EC00030D12020010391FAA1F1B1FA81F1084358
:100ED0000121B1EB601F02D1E94800680FE020203A
:100EE000010391FAA1F1B1FA81F108430221B1EBBA
:100EF000601F02D1E248006A01E0E148406A202117
:100F00000A0392FAA2F2B2FA82F2114301F01F022E
:100F10000121914008400028BFD0606800283AD1E4
:100F2000012038BD00BF6068B0F5803F06D1D448CD
:100F3000006840F48030D249086028E0606858B901
:100F4000CF48006820F48030CD490860084600682A
:100F500020F4802008601AE06068B0F5A02F0BD163
:100F6000C748006840F48020C5490860084600680A
:100F700040F4803008600AE0C148006820F4803006
:100F8000BF4908600846006820F48020086000BF60
:100F90006068C8B300E06FE0FFF744FC054606E078
:100FA000FFF740FC401B642801D90320B9E720204B
:100FB000010391FAA1F1B1FA81F108430121B1EBEA
:100FC000601F02D1AE4800680FE02020010391FAB3
:100FD000A1F1B1FA81F108430221B1EB601F02D106
:100FE000A748006A01E0A648406A20210A0392FA55
:100FF000A2F2B2FA82F2114301F01F0201219140E4
:1010000008400028CCD037E0FFE7FFF70BFC05468F
:1010100006E0FFF707FC401B642801D9032080E7A6
:101020002020010391FAA1F1B1FA81F108430121D5
:10103000B1EB601F02D1924800680FE0202001034D
:1010400091FAA1F1B1FA81F108430221B1EB601FDD
:1010500002D18B48006A01E08948406A20210A03D6
:1010600092FAA2F2B2FA82F2114301F01F020121B8
:10107000914008400028CCD1207800F002000228DE
:101080004ED17F48406800F00C0050B17C48406869
:1010900000F00C00082844D17948406800F4803002
:1010A00078BB2020022191FAA1F1B1FA81F1084325
:1010B0000121B1EB601F02D1714800680FE02020D0
:1010C000022191FAA1F1B1FA81F108430221B1EBB9
:1010D000601F02D16A48006A01E06948406A202125
:1010E000022292FAA2F2B2FA82F2114301F01F0236
:1010F00001219140084028B12069012802D0012037
:101100000FE70EE05E48006820F0F800F82292FA3F
:10111000A2F2B2FA82F2616991400843584908602C
:1011200091E02069F0B3012090FAA0F1B1FA81F1C9
:10113000544A42F82100FFF775FB054606E0FFF729
:1011400071FB401B022801D90320EAE6202002217E
:1011500091FAA1F1B1FA81F108430121B1EB601FCD
:1011600002D1474800680FE02020022191FAA1F146
:10117000B1FA81F108430221B1EB601F02D140486E
:10118000006A01E03E48406A2021022292FAA2F25F
:10119000B2FA82F2114301F01F020121914008408E
:1011A000002800E00FE0CAD03548006820F0F800C1
:1011B000F82292FAA2F2B2FA82F2616991400843EF
:1011C0002F4908603FE00020012191FAA1F1B1FA16
:1011D00081F12C4A42F82100FFF724FB054606E086
:1011E000FFF720FB401B022801D9032099E62020AD
:1011F000022191FAA1F1B1FA81F108430121B1EB89
:10120000601F02D11E4800680FE02020022191FAE1
:10121000A1F1B1FA81F108430221B1EB601F02D1C3
:101220001748006A01E01648406A2021022292FA1B
:10123000A2F2B2FA82F2114301F01F0201219140A1
:1012400008400028CCD1207800F0080008284BD1B5
:10125000A069A8B3012191FAA1F0B0FA80F0094A7F
:1012600002EB8000C0F88014FFF7DCFA05460BE0C3
:10127000FFF7D8FA401B022806D9032051E60000E8
:1012800000100240000042426020022191FAA1F1C8
:10129000B1FA81F108430121B1EB601F02D1F94895
:1012A000006810E06020022191FAA1F1B1FA81F109
:1012B00008430221B1EB601F03D1F248006A02E04B
:1012C00013E0F048406A6021022292FAA2F2B2FAD8
:1012D00082F2114301F01F020121914008400028D1
:1012E000C6D00120FFF7F8F841E00020012191FA73
:1012F000A1F1B1FA81F1E44A02EB8101C1F8800465
:10130000FFF790FA054606E0FFF78CFA401B02282B
:1013100001D9032005E66020022191FAA1F1B1FA7A
:1013200081F108430121B1EB601F02D1D54800686B
:101330000FE06020022191FAA1F1B1FA81F1084396
:101340000221B1EB601F02D1CE48006A01E0CD4816
:10135000406A6021022292FAA2F2B2FA82F21143AA
:1013600001F01F020121914008400028CCD12078D3
:1013700000F00400042875D100BFC248C06940F0E5
:101380008050C049C8610846C06900F08050009094
:1013900000BF00BFBD48006840F48070BB490860D2
:1013A000FFF740FA054606E0FFF73CFA401B6428C9
:1013B00001D90320B5E5B548006800F48070002825
:1013C000F2D000BFE068012806D1AE48006A40F0C4
:1013D0000100AC49086227E0E06858B9A948006AF2
:1013E00020F00100A74908620846006A20F00400C6
:1013F000086219E0E06805280BD1A248006A40F0B5
:101400000400A04908620846006A40F00100086232
:101410000AE09C48006A20F001009A4908620846E8
:10142000006A20F00400086200BFE068D0B3FFF754
:10143000F9F9054608E0FFF7F5F9401B41F288315C
:10144000884201D903206CE54020022191FAA1F1E4
:10145000B1FA81F108430121B1EB601F03D1894842
:10146000006810E058E04020022191FAA1F1B1FAA1
:1014700081F108430221B1EB601F02D18148006A6B
:1014800001E08048406A4021022292FAA2F2B2FAB8
:1014900082F2114301F01F0201219140084000280F
:1014A000C9D039E0FFE7FFF7BDF9054608E0FFF7CF
:1014B000B9F9401B41F28831884201D9032030E557
:1014C0004020022191FAA1F1B1FA81F108430121F2
:1014D000B1EB601F02D16B4800680FE04020022191
:1014E00091FAA1F1B1FA81F108430221B1EB601F39
:1014F00002D16448006A01E06248406A4021022249
:1015000092FAA2F2B2FA82F2114301F01F02012113
:10151000914008400028CAD1E069002873D059489A
:10152000406800F00C0008286ED0E06902286CD1F9
:1015300000204FF0807191FAA1F1B1FA81F1524A85
:1015400042F82100FFF76EF9054606E0FFF76AF959
:10155000401B022801D90320E3E42020010591FA71
:10156000A1F1B1FA81F108430121B1EB601F02D171
:10157000444800680FE02020010591FAA1F1B1FA7A
:1015800081F108430221B1EB601F02D13D48006A9E
:1015900001E03C48406A20210A0592FAA2F2B2FA20
:1015A00082F2114301F01F020121914008400028FE
:1015B000CCD1206AB0F5803F07D13248406820F492
:1015C0000030A16808432F494860D4E90801084366
:1015D0002C49496821F4741108432A4948600121C3
:1015E000080690FAA0F0B0FA80F0274A42F82010DE
:1015F000FFF718F9054609E0FFF714F9401B022828
:1016000004D903208DE479E076E02CE02020010568
:1016100091FAA1F1B1FA81F108430121B1EB601F08
:1016200002D1184800680FE02020010591FAA1F1CD
:10163000B1FA81F108430221B1EB601F02D11148D8
:10164000006A01E00F48406A20210A0592FAA2F2DE
:10165000B2FA82F2114301F01F02012191400840C9
:101660000028C9D04AE000204FF0807191FAA1F122
:10167000B1FA81F1044A42F82100FFF7D3F8054698
:101680000DE00000001002400000424200700040E7
:10169000FFF7C8F8401B022801D9032041E42020AD
:1016A000010591FAA1F1B1FA81F108430121B1EBF1
:1016B000601F02D1124800680FE02020010591FA56
:1016C000A1F1B1FA81F108430221B1EB601F02D10F
:1016D0000B48006A01E00A48406A20210A0592FA94
:1016E000A2F2B2FA82F2114301F01F0201219140ED
:1016F00008400028CCD101E0012012E4002010E4D1
:1017000000100240042808D14FF0E021096941F09F
:1017100004014FF0E022116107E04FF0E021096978
:1017200021F004014FF0E02211617047704770B55D
:1017300004462546681EB0F1807F01D301200FE0EA
:10174000681E4FF0E02148610F214FF0FF3000F09C
:1017500079FC00204FF0E02188610720086100201B
:1017600070BD10B5FFF7E2FF10BD024600BF92F852
:101770003800012801D102207047012082F838008A
:1017800000BF022082F839001068406820F0700025
:1017900013685860106840680B68184313685860F5
:1017A0001068806820F08000136898601068806876
:1017B0004B68184313689860012082F8390000BF15
:1017C000002082F8380000BF00BFD5E71FB50446EF
:1017D0000B492068884211D1C0200090022001905E
:1017E000039069460748FEF785FE0320009002201B
:1017F0000190039069460448FEF77CFE1FBD00007F
:101800000004004000080140000C014070B504468F
:101810000D46164600BF94F83800012801D1022079
:1018200070BD012084F8380000BF022084F8390020
:1018300036B1042E1BD0082E31D00C2E5ED145E0DF
:101840002946206800F0B8FC2068806940F0080054
:10185000216888612068806920F00400216888611F
:1018600020688069296908432168886147E0294622
:10187000206800F0D3FC2068806940F40060216893
:1018800088612068806920F4806021688861206810
:101890008069296940EA0120216888612FE0294692
:1018A000206800F0F3FC2068C06940F0080021685F
:1018B000C8612068C06920F004002168C861206800
:1018C000C069296908432168C86118E02946206871
:1018D00000F012FD2068C06940F400602168C86112
:1018E0002068C06920F480602168C8612068C069F0
:1018F000296940EA01202168C86100E000BF00BFFB
:10190000012084F8390000BF002084F8380000BFAF
:1019100000BF85E710B504460CB9012010BD94F84E
:10192000390028B9002084F83800204600F00CF86F
:10193000022084F83900211D206800F007FC0120F6
:1019400084F839000020E9E708B5094A01689142A6
:101950000DD100BF0749C96941F00201054AD161B3
:101960001146C96901F00201009100BF00BF08BD26
:1019700000040040001002407047F8B504460025FE
:1019800000262068006800F001052068C06800F4A7
:10199000807625B11EB1E06B40F00100E063206865
:1019A0000068C0F340052068406900F0010625B1D9
:1019B0001EB1E06B40F00400E06320680068C0F3F3
:1019C000800525B11EB1E06B40F00200E0632068A5
:1019D0000068C0F3C00525B11EB1E06B40F00800FF
:1019E000E06320680068C0F340152068C06800F01C
:1019F00020061DB116B1204600F0BEFC206800682C
:101A0000C0F3C0152068C06800F080061DB116B193
:101A1000204600F0F3FD20680068C0F380152068C0
:101A2000C06800F040061DB116B1204600F08CFCE5
:101A3000E06B70B100BF20680068009020684068CB
:101A4000009000BF00BF012084F839002046FFF756
:101A500093FFF8BD10B504460CB9012010BDA06974
:101A600000B100E000BF94F8390028B9002084F8E4
:101A70003800204600F026F8022084F8390020685B
:101A8000C06820F400502168C860204600F0D2FCF5
:101A90002068006920F4904021680861206840694E
:101AA00020F02A00216848612068C06840F4005096
:101AB0002168C8600020E063012084F8390000201C
:101AC000CCE7000010B586B0044662492068884221
:101AD0002AD100BF6048806940F480405E49886137
:101AE0000846806900F48040019000BF00BF48159F
:101AF0000290022003900320059002A95748FEF7A8
:101B0000F9FC4FF48060029000200390049002A939
:101B10005248FEF7EFFC002211462520FEF78BFF0E
:101B20002520FEF77BFF92E04D492068884244D192
:101B300000BF4948C06940F400304749C8610846C1
:101B4000C06900F40030019000BF00BF0420029083
:101B5000022003900320059002A94048FEF7CAFC2A
:101B60000820029000200390049002A93B48FEF751
:101B7000C1FC3C483C4908600020486000213A48CC
:101B800081608021C160002101614161202181616A
:101B90000902C161FEF776FC08B1FEF7E8FA00BF62
:101BA00031486063446200BF002211462620FEF7E0
:101BB00042FF2620FEF732FF49E02C492068884288
:101BC00045D100BF2448C06940F480202249C86143
:101BD0000846C06900F48020019000BF00BF0815CE
:101BE0000290022003900320059002A92048FEF7EE
:101BF00081FC4FF40060029000200390049002A941
:101C00001B48FEF777FC17483C381A49086000204B
:101C100048600021174881608021C1600021016176
:101C20004161202181610021C161FEF72BFC08B1D7
:101C3000FEF79DFA00BF0F486063446200BF0022B8
:101C400011462720FEF7F7FE2720FEF7E7FE06B035
:101C500010BD0000003801400010024000080140A3
:101C6000004400406C000240CC00002000480040CE
:101C7000000C01400401002070472DE9F0470446A4
:101C80000D46164699464FF0000894F83980B8F191
:101C9000010F02D0B8F1220F65D105B116B90120AC
:101CA000BDE8F08700BF94F83800012801D1022078
:101CB000F6E7012084F8380000BF0020E06394F8C4
:101CC0003900222803D1322084F8390002E01220A2
:101CD00084F83900A684E68428E0E08C401EE08485
:101CE000A068B0F5805F14D14B46002280212046C9
:101CF00000F0BCFC08B10320D2E72F463888C0F3BF
:101D0000080021684860206908B9AD1C0EE06D1C10
:101D10000CE04B4600228021204600F0A7FC08B1D1
:101D20000320BDE715F8010B21684860E08C00280E
:101D3000D3DC4B4600224021204600F097FC08B13E
:101D40000320ADE794F83900322803D1222084F82B
:101D5000390002E0012084F8390000BF002084F837
:101D6000380000BF9CE702209AE7704700BFFEE7FB
:101D700010B502460B460021154C5068A0420BD806
:101D800050684000B3FBF0F1C1F30B00042801D20E
:101D9000042010BD0846FCE74FF40041906830B9BC
:101DA000506800EB4000B3FBF0F0014309E05068DD
:101DB00000EBC00404EB0010B3FBF0F040F48040F3
:101DC0000143C1F30B0008B90120E2E70846E0E750
:101DD000A086010008B500BF0E48406940F0010030
:101DE0000C4948610846406900F00100009000BFBE
:101DF00000BF002211460D20FEF71DFE0D20FEF74C
:101E00000DFE002211461020FEF715FE1020FEF7F1
:101E100005FE08BD0010024000B585B000BF234894
:101E2000806940F01000214988610846806900F00F
:101E30001000009000BF00BF00BF0846806940F05E
:101E4000200088610846806900F02000009000BFF3
:101E500000BF00BF0846806940F004008861084662
:101E6000806900F00400009000BF00BF00BF08467A
:101E7000806940F0080088610846806900F0080029
:101E8000009000BF00BF00224FF400510848FEF749
:101E9000C3FC4FF4005001900120029002200490F6
:101EA00001A90348FEF726FB05B000BD0010024063
:101EB0000010014010B50B480B4908600B48486002
:101EC000002109488160C1604FF480410161002117
:101ED00041618161C1610162FEF7AAFC08B1FEF7B0
:101EE00046F910BD005400403C010020A0860100CE
:101EF00000B589B0214822490860002048600021CF
:101F00001F488160C1600161FFF704FD08B1FEF761
:101F10002EF900200790089007A91948FFF725FC23
:101F200008B1FEF724F96020009000200190029093
:101F30000490002269461248FFF768FC08B1FEF7DA
:101F400016F9042269460E48FFF760FC08B1FEF757
:101F50000EF9082269460A48FFF758FC08B1FEF757
:101F600006F90C2269460648FFF750FC08B1FEF757
:101F7000FEF80348FFF72AFC09B000BD000400404A
:101F80007801002010B50B480B4908604FF4E13090
:101F90004860002108488160C16001610C214161F5
:101FA00000218161C161FFF755FD08B1FEF7DFF83F
:101FB00010BD0000003801400C00002010B50B4897
:101FC0000B4908604FF416504860002108488160B2
:101FD000C16001610C21416100218161C161FFF794
:101FE00039FD08B1FEF7C3F810BD00000044004001
:101FF0004C00002010B50B480B4908604FF41650F8
:102000004860002108488160C16001610C21416184
:1020100000218161C161FFF71DFD08B1FEF7A7F83E
:1020200010BD0000004800408C00002000BFFEE70B
:102030007047000002480068C0F3022070470000AB
:102040000CED00E010B5002807DA0A07140E054A67
:1020500000F00F031B1FD45403E00A07130E024ABB
:10206000135410BD18ED00E000E400E07047704725
:1020700010B5FEF75FFCFFF774FB10BD10B590B014
:1020800001200690000407900020089001200A908B
:1020900002200D90C1030E914FF4E0110F9106A89C
:1020A000FEF7F4FE08B1FEF762F80F20019002205F
:1020B0000290002003904FF480600490002005906F
:1020C000022101A8FEF70AFD08B1FEF750F8FEF75D
:1020D00051FE4FF47A71B0FBF1F42046FFF727FB75
:1020E0000420FFF70FFB00221146501EFEF7A3FC51
:1020F00010B010BD1148006840F001000F490860A1
:10210000084640680E4908400C4948600846006887
:102110000C490840094908600846006820F48020FE
:1021200008600846406820F4FE0048604FF41F0035
:102130008860C8030449086070470000001002402E
:102140000000FFF8FFFFF6FE08ED00E00022026845
:10215000164B984208D0B0F1804F05D0144B9842EE
:1021600002D0144B984203D122F070024B681A43FC
:102170000E4B984208D0B0F1804F05D00C4B9842DE
:1021800002D00C4B984203D122F44072CB681A4320
:1021900002608B68C3620B688362044B984201D172
:1021A0000B6903630123436170470000002C014069
:1021B000000400400008004030B500240022002345
:1021C000056A25F001050562026A4368846924F006
:1021D000700424F003040D682C4322F002028D6881
:1021E0002A430D4DA84206D100BF22F00802CD6857
:1021F0002A4322F00402084DA84207D123F4807339
:1022000023F400734D692B438D692B434360846134
:102210004D684563026230BD002C014030B500249A
:1022200000220023056A25F010050562026A436852
:10223000846924F4E04424F440740D6844EA0524DD
:1022400022F020028D6842EA05120F4DA84207D104
:1022500000BF22F08002CD6842EA051222F040025F
:10226000094DA84209D123F4806323F400634D692A
:1022700043EA85038D6943EA8503436084614D68C1
:102280008563026230BD0000002C014030B500249F
:1022900000220023056A25F480750562026A4368FE
:1022A000C46924F0700424F003040D682C4322F464
:1022B00000728D6842EA05220E4DA84207D100BF88
:1022C00022F40062CD6842EA052222F48062094DC0
:1022D000A84209D123F4805323F400534D6943EA03
:1022E00005138D6943EA05134360C4614D68C563F6
:1022F000026230BD002C014030B5002200230024D2
:10230000056A25F480550562036A4468C26922F4AF
:10231000E04222F440720D6842EA052223F40053A1
:102320008D6843EA0533074DA84204D124F4804464
:102330004D6944EA85144460C2614D6805640362D6
:1023400030BD0000002C014010B504462068C06874
:1023500020F040002168C86094F83900322803D189
:10236000222084F8390002E0012084F83900204658
:10237000FFF7FBFC002010BD70B50446002694F862
:102380003960222E01D0322E52D1A068B0F5805F84
:1023900013D1A56A206940B920684068C0F30800DD
:1023A0002880A06A801CA06219E020684068C0B242
:1023B0002880A06A401CA06211E0206938B920681A
:1023C0004068C1B2A26A501CA062117007E0206888
:1023D000406800F07F01A26A501CA0621170E08D7D
:1023E000401E80B2E08508BB2068C06820F0200055
:1023F0002168C86094F83900322803D1122084F88B
:1024000039000EE02068C06820F480702168C86040
:102410002068406920F0010021684861012084F8AB
:1024200039002046FFF728FC002070BD0020FCE7A3
:102430000220FAE72DE9F0410446002520680069F2
:1024400020F44050E1680843216808612169A068D0
:102450000843616940EA01052068C06841F20C61E7
:10246000884328432168C8602068406920F4407090
:10247000A1690843216848615F49206888425CD1AE
:10248000FEF794FC00EBC00101EB001061688900CD
:10249000B0FBF1F6FEF78AFC00EBC00101EB001087
:1024A00061688900B0FBF1F06421B0FBF1F000EB52
:1024B000C00101EB0010A6EB8000322101EB0010FF
:1024C0006421B0FBF1F000F0F006FEF76FFC00EBCA
:1024D000C00101EB001061688900B0FBF1F06421DC
:1024E000B0FBF1F006EB0016FEF760FC00EBC0015C
:1024F00001EB001061688900B0FBF1F7FEF756FCB4
:1025000000EBC00101EB001061688900B0FBF1F045
:102510006421B0FBF1F000EBC00101EB0010A7EB70
:102520008000322101EB00106421B0FBF1F000F0DB
:102530000F003044216888605BE0FEF721FC00EB6F
:10254000C00101EB001061688900B0FBF1F6FEF7F5
:1025500017FC00EBC00101EB001061688900B0FBC3
:10256000F1F06421B0FBF1F000EBC00101EB0010D1
:10257000A6EB8000322101EB00106421B0FBF1F0EA
:1025800000F0F006FEF7FCFB00EBC00101EB0010D1
:1025900061688900B0FBF1F06421B0FBF1F006EB5B
:1025A0000016FEF7EDFB00EBC00101EB00106168C7
:1025B0008900B0FBF1F7FEF7E3FB00EBC00101EB94
:1025C000001061688900B0FBF1F06421B0FBF1F00C
:1025D00000EBC00101EB0010A7EB8000322101EB02
:1025E00000106421B0FBF1F000F00F0030442168CE
:1025F0008860BDE8F08100000038014010B5014658
:10260000002391F83930122B01D0322B2CD188685D
:10261000B0F5805F0FD10A6A1088C0F308000C681B
:102620006060086918B9086A801C086209E0086AD5
:10263000401C086205E00C6A601C086220780C6887
:102640006060C88C401E80B2C88458B90868C068F1
:1026500020F080000C68E0600868C06840F040002E
:102660000C68E060002010BD0220FCE72DE9F0417D
:1026700004460E4617461D464FF00008FEF7D2F8F6
:1026800080469FBB2BE0681C48B32DB1FEF7CAF80B
:10269000A0EB0800A84222D92068C06820F0800082
:1026A0002168C8602068C06820F020002168C860E8
:1026B0002068C06820F480702168C8602068406984
:1026C00020F0010021684861012084F8390000BF32
:1026D000002084F8380000BF0320BDE8F0812068A6
:1026E00000683040B04202D1012001E003E0002048
:1026F0000028C8D035E02AE0681C40B32DB1FEF7B1
:1027000091F8A0EB0800A84221D92068C06820F009
:1027100080002168C8602068C06820F0200021681F
:10272000C8602068C06820F480702168C860206894
:10273000406920F0010021684861012084F83900D7
:1027400000BF002084F8380000BF0320C5E72068E0
:1027500000683040B04201D1012000E00020002894
:10276000CAD10020B9E7000010B50248FFF705F90B
:1027700010BD00000C00002010B50248FFF7FDF866
:1027800010BD00004C00002010B50248FFF7F5F81E
:1027900010BD00008C00002000BFFEE7014A024986
:1027A00000F013B8ED2700080800002002E008C878
:1027B000121F08C1002AFAD170477047002001E0BB
:1027C00001C1121F002AFBD170472DE9F0411646C6
:1027D0000F460446002503E03946B047641C6D1CD3
:1027E00020780028F8D12846BDE8F08113B50C46C2
:1027F0004FF6FF73012269460248FFF73EFA009840
:102800001CBD00000C000020FEF79CF8FFF736FC12
:10281000FFF702FBFFF7DEFAFFF74CFBFFF7B2FB17
:10282000FFF7CCFBFFF7E6FBFFF762FB0BE04FF493
:102830007A70FDF751FE4FF400510348FDF7E8FFB1
:1028400002A0FFF7ABFFF2E700100140746573745C
:102850000A00000000000000000000000102030464
:102860000607080900000000010203048C28000884
:10287000000000200C000000AC2700089828000889
:102880000C000020AC050000BC2700080000000080
:0828900000A24A040000000050
:04000005080000ED02
:00000001FF
